{
  "contractName": "Bank",
  "abi": [
    {
      "inputs": [],
      "stateMutability": "nonpayable",
      "type": "constructor"
    },
    {
      "inputs": [],
      "name": "owner",
      "outputs": [
        {
          "internalType": "address",
          "name": "",
          "type": "address"
        }
      ],
      "stateMutability": "view",
      "type": "function"
    },
    {
      "inputs": [],
      "name": "deposit",
      "outputs": [],
      "stateMutability": "payable",
      "type": "function"
    },
    {
      "inputs": [
        {
          "internalType": "uint256",
          "name": "amount",
          "type": "uint256"
        }
      ],
      "name": "withdraw",
      "outputs": [],
      "stateMutability": "nonpayable",
      "type": "function"
    },
    {
      "inputs": [],
      "name": "checkBalance",
      "outputs": [
        {
          "internalType": "uint256",
          "name": "",
          "type": "uint256"
        }
      ],
      "stateMutability": "view",
      "type": "function"
    },
    {
      "inputs": [],
      "name": "totalFunds",
      "outputs": [
        {
          "internalType": "uint256",
          "name": "",
          "type": "uint256"
        }
      ],
      "stateMutability": "view",
      "type": "function"
    }
  ],
  "bytecode": "0x608060405234801561000f575f80fd5b503360015f6101000a81548173ffffffffffffffffffffffffffffffffffffffff021916908373ffffffffffffffffffffffffffffffffffffffff1602179055506106e88061005d5f395ff3fe608060405260043610610049575f3560e01c80632e1a7d4d1461004d5780638da5cb5b14610075578063968ed6001461009f578063c71daccb146100c9578063d0e30db0146100f3575b5f80fd5b348015610058575f80fd5b50610073600480360381019061006e91906103e0565b6100fd565b005b348015610080575f80fd5b50610089610215565b604051610096919061044a565b60405180910390f35b3480156100aa575f80fd5b506100b361023a565b6040516100c09190610472565b60405180910390f35b3480156100d4575f80fd5b506100dd6102d0565b6040516100ea9190610472565b60405180910390f35b6100fb610313565b005b5f803373ffffffffffffffffffffffffffffffffffffffff1673ffffffffffffffffffffffffffffffffffffffff1681526020019081526020015f205481111561017c576040517f08c379a0000000000000000000000000000000000000000000000000000000008152600401610173906104e5565b60405180910390fd5b3373ffffffffffffffffffffffffffffffffffffffff166108fc8290811502906040515f60405180830381858888f193505050501580156101bf573d5f803e3d5ffd5b50805f803373ffffffffffffffffffffffffffffffffffffffff1673ffffffffffffffffffffffffffffffffffffffff1681526020019081526020015f205f82825461020b9190610530565b9250508190555050565b60015f9054906101000a900473ffffffffffffffffffffffffffffffffffffffff1681565b5f60015f9054906101000a900473ffffffffffffffffffffffffffffffffffffffff1673ffffffffffffffffffffffffffffffffffffffff163373ffffffffffffffffffffffffffffffffffffffff16146102ca576040517f08c379a00000000000000000000000000000000000000000000000000000000081526004016102c1906105d3565b60405180910390fd5b47905090565b5f805f3373ffffffffffffffffffffffffffffffffffffffff1673ffffffffffffffffffffffffffffffffffffffff1681526020019081526020015f2054905090565b5f3411610355576040517f08c379a000000000000000000000000000000000000000000000000000000000815260040161034c90610661565b60405180910390fd5b345f803373ffffffffffffffffffffffffffffffffffffffff1673ffffffffffffffffffffffffffffffffffffffff1681526020019081526020015f205f8282546103a0919061067f565b92505081905550565b5f80fd5b5f819050919050565b6103bf816103ad565b81146103c9575f80fd5b50565b5f813590506103da816103b6565b92915050565b5f602082840312156103f5576103f46103a9565b5b5f610402848285016103cc565b91505092915050565b5f73ffffffffffffffffffffffffffffffffffffffff82169050919050565b5f6104348261040b565b9050919050565b6104448161042a565b82525050565b5f60208201905061045d5f83018461043b565b92915050565b61046c816103ad565b82525050565b5f6020820190506104855f830184610463565b92915050565b5f82825260208201905092915050565b7f496e73756666696369656e742062616c616e63652e00000000000000000000005f82015250565b5f6104cf60158361048b565b91506104da8261049b565b602082019050919050565b5f6020820190508181035f8301526104fc816104c3565b9050919050565b7f4e487b71000000000000000000000000000000000000000000000000000000005f52601160045260245ffd5b5f61053a826103ad565b9150610545836103ad565b925082820390508181111561055d5761055c610503565b5b92915050565b7f4f6e6c79206f776e65722063616e20706572666f726d207468697320616374695f8201527f6f6e2e0000000000000000000000000000000000000000000000000000000000602082015250565b5f6105bd60238361048b565b91506105c882610563565b604082019050919050565b5f6020820190508181035f8301526105ea816105b1565b9050919050565b7f4465706f736974206d7573742062652067726561746572207468616e207a65725f8201527f6f2e000000000000000000000000000000000000000000000000000000000000602082015250565b5f61064b60228361048b565b9150610656826105f1565b604082019050919050565b5f6020820190508181035f8301526106788161063f565b9050919050565b5f610689826103ad565b9150610694836103ad565b92508282019050808211156106ac576106ab610503565b5b9291505056fea26469706673582212203324e1de1d9cfec52764f7534359b12b713df4aeabf8ba691b8e87aec1177ebe64736f6c63430008150033",
  "immutableReferences": {},
  "source": "// SPDX-License-Identifier: MIT\npragma solidity ^0.8.0;\n\ncontract Bank {\n    mapping(address => uint256) private balances;\n    address public owner;\n\n    constructor() {\n        owner = msg.sender;\n    }\n\n    modifier onlyOwner() {\n        require(msg.sender == owner, \"Only owner can perform this action.\");\n        _;\n    }\n\n    function deposit() public payable {\n        require(msg.value > 0, \"Deposit must be greater than zero.\");\n        balances[msg.sender] += msg.value;\n    }\n\n    function withdraw(uint256 amount) public {\n        require(amount <= balances[msg.sender], \"Insufficient balance.\");\n        payable(msg.sender).transfer(amount);\n        balances[msg.sender] -= amount;\n    }\n\n    function checkBalance() public view returns (uint256) {\n        return balances[msg.sender];\n    }\n\n    function totalFunds() public view onlyOwner returns (uint256) {\n        return address(this).balance;\n    }\n}\n",
  "sourcePath": "/Users/tanish/Desktop/blockchain-banking-app/contracts/Bank.sol",
  "compiler": {
    "name": "solc",
    "version": "0.8.21+commit.d9974bed.Emscripten.clang"
  },
  "schemaVersion": "3.4.16",
  "updatedAt": "2024-09-17T06:07:32.042Z",
  "devdoc": {
    "kind": "dev",
    "methods": {},
    "version": 1
  },
  "userdoc": {
    "kind": "user",
    "methods": {},
    "version": 1
  }
}